:020000040800F2
:100000008031002001010008432F0008FF2B000869
:10001000412F00084F070008574E0008000000005D
:100020000000000000000000000000007134000823
:100030003F08000800000000413200087334000847
:100040001B0100081B0100081B0100081B01000820
:100050001B0100081B0100081B0100081B01000810
:100060001B0100081B0100081B0100081B01000800
:100070001B0100081B010008090800081B010008FB
:100080001B0100081B0100081B0100081B010008E0
:10009000E14D00081B0100081B0100081B010008BE
:1000A0001B0100081B0100081B0100081B010008C0
:1000B000F1340008FD340008093500081B01000870
:1000C0001B0100081B0100081B0100081B010008A0
:1000D0001B0100081B0100081B0100081B01000890
:1000E0001B0100081B0100081B010008DFF80CD0F1
:1000F00000F040F900480047A94E00088031002078
:100100000648804706480047FEE7FEE7FEE7FEE7B1
:10011000FEE7FEE7FEE7FEE7FEE7FEE7ED34000858
:10012000ED00000840EA01039B0703D009E008C97D
:10013000121F08C0042AFAD203E011F8013B00F8AC
:10014000013B521EF9D27047D2B201E000F8012BF8
:10015000491EFBD270470022F6E710B513460A4647
:1001600004461946FFF7F0FF204610BD0FB400B556
:100170008DB010A909900B9000914FF0FF300A90BC
:1001800000200C9005480690054807906A4609A88B
:100190000F9900F0C1F80DB05DF814FB35030008AD
:1001A000530300082DE9FF5F1D464FF0FF3BD5E9E3
:1001B000014691465F464FF00008A9697F1C0198EF
:1001C0008847296A824688470028F6D1BAF1FF3F5E
:1001D0000CD024F4C064002E19DD600614D5BAF1E9
:1001E0002B0F09D0BAF12D0F0ED103E0584604B001
:1001F000BDE8F09F44F48064A9697F1C019888479A
:10020000761E8246002E02DDBAF1300F03D0B9F11E
:10021000000F26D032E0A969761E44F400747F1CDA
:10022000019888478246002E05DDBAF1780F06D086
:10023000BAF1580F03D0B9F1000F10D01EE0B9F198
:10024000000F02D0B9F1100F18D1A969761E24F45D
:1002500000747F1C019888478246102002E0082025
:1002600000E00A20814609E008FB0908A969761E1A
:1002700044F400747F1C019888478246002E05DDF7
:100280004946504600F034F80028EDDAE969019853
:100290008847A00502D46FF00100A8E7E00725D148
:1002A000600613D5600502D5C8F1000000E04046A5
:1002B00029680A1D2A600968220501D5087015E021
:1002C000220701D5088011E008600FE02868011DB1
:1002D00029600068210502D580F8008006E021072A
:1002E00002D5A0F8008001E0C0F8008038467EE723
:1002F0003A2800D2303820F02002412A01D3A2F15E
:100300003700884201D34FF0FF3070470268114434
:100310001378016018467047D1600449516104495F
:10032000116200211161114600F03CB80D03000874
:1003300099030008426842B1016811F8013B23B1FA
:10034000521EC0E90012184670470121C160881E84
:10035000704742685AB1C368016843B983688B42E9
:1003600005D0491E521CC0E90012002070474FF012
:10037000FF307047064C074D06E0E06840F001038F
:1003800094E8070098471034AC42F6D3FFF7B2FE6A
:1003900088510008A8510008C0B24FF4F05100F095
:1003A00097B900002DE9F34F8BB04FF0000801F131
:1003B0000C000C464FF0010B46460DF1080A019067
:1003C0006269012101989047051E2DD0252D2CD062
:1003D000216A8847C0B16269012101989047216A6A
:1003E00088470028F7D1411E62690198904700E0D4
:1003F000761CA1690B988847216A88470028F7D1A5
:10040000E1690B988847DBE7A1690B9888470746A5
:10041000A84201D1761CD3E7E1690B9888477F1C7D
:1004200002D1B8F1000F6FD046E1002762693D4666
:100430003946019890472A2804D162690121019820
:1004400090470125DFF88492626901210198904765
:10045000A0F130010A290AD24F45E5DC07EB8701FC
:1004600000EB4107303FDFD445F01005ECE7E9062B
:1004700001D46FF000476C280AD04C2814D06828AB
:1004800015D06A280DD074281CD07A281AD01DE007
:1004900062690121019890476C2802D045F004055B
:1004A00014E045F002050DE045F020050AE0626920
:1004B000012101989047682802D045F0080505E021
:1004C00045F400656269012101989047C4E901572C
:1004D00065283DD019DC58287AD00CDC452837D067
:1004E00004DC252826D0412831D131E046282FD000
:1004F00047282CD12CE05B2877D0612828D06328AE
:100500007CD0642823D15AE0D0E06F2848D008DCA2
:1005100066281DD067281BD0692821D06E2816D1E7
:1005200027E0702845D0732868D0752847D07828F0
:100530000DD14DE0A1690B988847054625283FF469
:1005400069AFE1690B9888476D1C3FF46AAFB3E06F
:1005500023466A466FF001000B99AFF300809EE0DE
:1005600045F040006060A80723464FF0000236D4F3
:100570003EE0E8077FF447AF2068011D2160006876
:10058000290501D506701BE7290701D5068017E765
:10059000A90703D5F117C0E9006111E706600FE76D
:1005A00045F040006060A80723464FF0080216D4CB
:1005B0001EE040F60E0125EA0100606016E045F0FD
:1005C00040006060A80723464FF00A0207D40FE0FE
:1005D00045F040006060A80708D5234610226FF060
:1005E00001000B99AFF3008059E007E02346102289
:1005F0006FF001000B99FFF7D5FD50E04FF00009B7
:100600004F464B46632802D05B2806D040E0E80600
:1006100001D40120A06001273AE06269012101981C
:1006200090475E2805D14FF001096269494601985B
:100630009047216939B900210A46534643F82120E1
:10064000491C0829FADBB0B3216969B9C11700EB6D
:10065000D16253110AEB830122F01F02821A01209A
:100660000B68904003430B60626901210198904739
:100670005D28E8D1B9F1000F09D00020514651F8AA
:100680002020D24341F82020401C0828F7DB02AB91
:10069000224600976FF001000B99AFF3008000280D
:1006A0000CDA401C08D1BBF1000F05D04FF0FF3031
:1006B0000DB0BDE8F08FFFE74046F9E7E90701D14B
:1006C00008F1010806444FF0000B79E6CCCCCC0CC5
:1006D0007F2801D9002208E0064A02EB5002C00739
:1006E000127800D1120902F00F0201209040084058
:1006F000704700004851000870B58C1810F8015B75
:1007000015F0070301D110F8013B2A1106D110F8AA
:10071000012B03E010F8016B01F8016B5B1EF9D1AE
:100720002B0705D40023521E0DD401F8013BFAE734
:1007300010F8013BCB1A921C03E013F8015B01F89F
:10074000015B521EF9D5A142D8D3002070BDFEE74F
:1007500000207047002070478121014803F0D3BB7F
:100760003023002010B500220449054803F01AF98F
:100770000449034803F010F9002010BD9400002044
:1007800030230020F427002070B50D4604460146B2
:100790000F4803F001F90E4803F0E2F82968A1B10F
:1007A0002078532804D0462807D054280AD00CE0DB
:1007B00008490878401C087007E007480178491C80
:1007C000017002E0204604F08FFC002070BD0000A4
:1007D000302300200000002001000020094A10B54D
:1007E000D2F8B822D2F814220AB1012010BD0A466C
:1007F0000146044803F0D6F8BDE81040014803F074
:100800002FB9000030230020014800F049B8000053
:100810001402002030B590F840500124AC40C56B64
:100820006C60046863604368102B036803D09960B0
:100830000068C26030BD9A600068C16030BD70471A
:1008400072B6FEE710B528B301680A6822F001020B
:100850000A600268002111600268516002689160BC
:100860000268D1600C4B026801241A441423B2FBC5
:10087000F3F29300094AC0E90F239C40546081625F
:10088000C16201634163816380F8211080F8201008
:10089000002010BD012010BDF8FFFDBF0000024088
:1008A0002DE9F05FC16B0C6801680B68D0F840C09F
:1008B000042202FA0CF2494DDFF824A1494E4A4FB6
:1008C000DFF828B1DFF828E122422CD05A072AD5D8
:1008D0000A68920603D40A6822F004020A600168DA
:1008E000A94201D1042219E0514501D1402215E06D
:1008F000B14202D14FF4806210E0B94202D14FF40C
:1009000080420BE0594502D14FF4802206E0714548
:1009100002D14FF4800201E04FF080622F49083984
:100920004A60C16A3BE04FF0020808FA0CF818EA86
:10093000040F4FF000094FF0010235D05FEA8378D1
:1009400032D50B689B0605D40B6823F00A030B60B5
:1009500080F821200168A94201D1022219E0514505
:1009600001D1202215E0B14202D14FF4007210E013
:10097000B94202D14FF400520BE0594502D14FF475
:10098000003206E0714502D14FF4001201E04FF051
:100990000072124908394A6080F82090816A002963
:1009A0001AD0BDE8F05F0847082505FA0CF5254286
:1009B00012D01B0710D50B6823F00E030B6090F8C4
:1009C0004010C36B02FA01F15960826380F8212064
:1009D00080F82090016BE2E7BDE8F09F080002403C
:1009E0001C00024030000240440002405800024017
:1009F0006C00024030B528B308C8134914221944CA
:100A0000B1FBF2F18900C163104981630221417792
:100A10001A6843F6F0718A43D0E900142143D0E903
:100A200002452C43214304692143446921438469DD
:100A3000214311431960002141630122427701776C
:100A4000084630BD012030BDF8FFFDBF0000024068
:100A500070B5044690F82000002501280CD0012034
:100A600084F8200094F821600020012E06D084F83C
:100A700020000225284670BD022070BD022684F8A1
:100A80002160A0632068066826F001060660204603
:100A9000FFF7C0FEE06A00282068016802D041F03C
:100AA0000E0106E021F0040101602068016841F0B8
:100AB0000A0101602068016841F001010160D9E785
:100AC0002DE9F0430023374F0F2566E001229A40BD
:100AD0000A4060D023F00304E619D6F808809C078A
:100AE0004FEA147C05FA0CF909EA0804DFF8B8802B
:100AF000404502D14FF0000816E0DFF8B0804045D5
:100B000002D14FF001080FE0DFF8A480404502D188
:100B10004FF0020808E0DFF89C80404502D14FF01A
:100B2000030801E04FF0040808FA0CF8A04515D1BD
:100B3000D6F808C02CEA090CC6F808C01E4E346866
:100B400094433460341D266896432660241D26682D
:100B500096432660241D266896432660FF2A01D806
:100B6000064601E000F104064FEA830401D9A4F12E
:100B70002004D6F800C005FA04F82CEA080C4FF05F
:100B8000040808FA04F84CEA080CC6F800C0C46867
:100B900024EA0204C46003F1010331FA03F295D19F
:100BA000BDE8F0830000014000080140000C014056
:100BB0000010014000140140000401402DE9F84FED
:100BC000DFF8B891002409F1040A0AF1040B234666
:100BD0000F270BF1040EC9E00125A5402A40AA42C7
:100BE0007DD1674ED1F804C0ACEB0608B44532D0D5
:100BF00014DCBCF1030F3AD009DCBCF1000F2AD0A1
:100C0000BCF1010F1CD0BCF1020F31D11DE0BCF1D1
:100C1000110F17D0BCF1120F2AD119E0B8F5881FB7
:100C200019D006DCB8F5803F15D0B8F5801F1FD16C
:100C300011E0B8F5001F0ED0B8F5041F18D10AE076
:100C4000CB6815E0CB681B1D12E0CB6808330FE0C2
:100C5000CB680C330CE08B682BB1012B4FF00803F1
:100C600003D0456104E0042302E0056100E00023B5
:100C7000FF2A01D8064601E000F104064FEA840588
:100C800001D9A5F12005D6F8008007FA05FC28EA6D
:100C90000C0803FA05F548EA0508C6F800804D6817
:100CA000ED0062D5374DAE6946F00106AE61AD6923
:100CB00024F0030605F001050095334D06EB050C05
:100CC000DCF80850A607360F07FA06F825EA0805EB
:100CD000DFF8B880404503D14FF0000817E044E04A
:100CE000DFF8AC80404502D14FF001080FE0DFF89B
:100CF000A480404502D14FF0020808E0DFF8988058
:100D0000404502D14FF0030801E04FF0040808FA13
:100D100006F848EA0508CCF808804D68D9F8006064
:100D2000ED034D4601D5164300E096432E604D6815
:100D3000DAF80060AD03554601D5164300E096434E
:100D40002E604D68DBF80060ED025D4601D516436C
:100D500000E096432E604D68DEF80060AD027546F7
:100D600001D5164300E096432E60641C0D682A46A8
:100D7000E5407FF431AFBDE8F88F0000000401408A
:100D80000000111000100240000001400008014066
:100D9000000C01400010014000140140C26821EA2B
:100DA00002030A4043EA0241016170470AB101614E
:100DB00070470904FBE700000148806870470000A5
:100DC00098000020024881680278114481607047D1
:100DD00098000020074810B5016841F0100101603B
:100DE000032000F075F8002000F006F800F024F869
:100DF000002010BD0020024070B50D4D04464FF498
:100E00007A712878B1FBF0F00A490968B1FBF0F07B
:100E100001F0A0F948B9102C07D200222146501E3B
:100E200000F036F800206C6070BD012070BD00003D
:100E300098000020A40000200C4808B5816941F00A
:100E400001018161816901F001010091C16941F0F5
:100E50008051C161C06900F0805000900448416831
:100E600021F0E06141F00071416008BD00100240D6
:100E700000000140002809DB00F01F020121914021
:100E80004009800000F1E020C0F800117047000028
:100E9000F0B40E4B1B680C46C3F30223C3F10705E5
:100EA000042D00D90425191D072901D2002300E0D3
:100EB000DB1E012606FA05F1491E214099409E409D
:100EC000761E16403143F0BC03F0C6BF0CED00E0C7
:100ED000064900F0070208684FF6FF03184040EA91
:100EE0000220034A10430860704700000CED00E048
:100EF0000000FA0510B50C0607D501F0070101EB5B
:100F0000810100EBC100283005E001EB810100EB1D
:100F1000C10000F5B47099B232B1012202730181AF
:100F2000190C4181002010BD00220273C180F9E735
:100F3000704701EB810200EBC202D0F8E802D26BED
:100F400002F03DBF01EB810200EBC202D0F8E802E3
:100F5000D2F87C2102F096BF70B504460B0601F072
:100F6000070000EB800104EBC1014FF001024FF0DC
:100F7000000503D581F82920283103E081F8695163
:100F800001F5B471087094F8A802012808D084F81B
:100F9000A822206803F0BEFB84F8A852002070BD90
:100FA000022070BD70B5044601F00F0062689042E7
:100FB00001D9012070BD0B0601F0070000EB800194
:100FC00004EBC1014FF001024FF0000503D581F899
:100FD0002920283103E081F8695101F5B4718D7041
:100FE000087094F8A802012808D084F8A822206884
:100FF00003F02DFC84F8A852002070BD022070BDC3
:101000002DE9F05F04685FEA424C0B788D69B4F813
:1010100050C04FF000064BF68F7948F2800A48F630
:101020008F7B48F2C00E4FF480672AD54FF002083C
:1010300008EBC308C44407EB4C07E45BC4F30904A2
:10104000A54203D32D1B8D6101D00BE08E61066894
:1010500036F8235005EA090585F4005545EA0A05E6
:1010600026F82350520609D50D78036833F8252059
:1010700002EA0B0242EA0E0223F8252084B30A8911
:1010800029E04FF0060808EBC308C44407EB4C07FF
:10109000E45BC4F30904A54203D32D1B8D6101D089
:1010A0000BE08E61066836F8235005EA090585F4E1
:1010B000005545EA0A0526F82350520609D40B7854
:1010C000056835F8232002EA0B0242EA0E0225F8F1
:1010D00023202CB14A8949690068234603F08AFE1F
:1010E0002046BDE8F09F2DE9F05F05460C460068FC
:1010F0005FEA426C16462278A369B0F850C04FF000
:10110000000148F68F774CF280094FF6FF7B4FF4D1
:10111000004E4FF4806A6CD54FF0020808EBC2080D
:10112000E0440AEB480C30F80C00C0F3090083429D
:1011300011D91B1AA3610FD0730407D52E6836F896
:1011400022303B4043EA090326F8223094F8242059
:10115000012A08D0C6E0A16111462846FFF7E9FE42
:1011600070046CD4BEE0626902446261E2690244C8
:10117000E2612369226A9A4202D31846111A03E0F7
:1011800084F824100AB110462162617811B1012956
:1011900023D02BE02968B1F850201144227801EBCC
:1011A000021101F2044148B13E280FD84208C3079A
:1011B00000D0521C0BEA82220A8017E00A8822F42F
:1011C000F8420A800A8842F40042F5E74209C30661
:1011D00000D1521E4EEA8222EEE72968B1F8502073
:1011E0001144227801EB0211A1F8040483B2228990
:1011F00074E04FF0060808EBC208E0440AEB480C24
:1012000030F80C00C0F30900834211D31B1AA3610C
:101210000FD0730407D42E6836F822303B4043EADF
:10122000090326F8223094F82420012A11D059E02D
:10123000A16111462846FFF77CFE700452D4227843
:10124000296831F82200384040EA090021F82200DC
:1012500048E0626902446261E2690244E261236932
:10126000226A9A4203D31846111A216204E00AB195
:101270001046216284F824106278296812B1012A8C
:1012800022D029E0B1F850201144227801EB02115C
:1012900001F20C4148B13E280FD84208C30700D0E4
:1012A000521C0BEA82220A8016E00A8822F4F842D5
:1012B0000A800A8842F40042F5E74209C30600D1D9
:1012C000521E4EEA8222EEE7B1F8502011442278F5
:1012D00001EB0211A1F80C04628983B261692868EC
:1012E00003F0A6FD2278296831F8220048F6BF7382
:1012F000184080F0300048F28003184321F82200A3
:101300000020BDE8F09F10B5044690F8A80201281F
:101310000AD0012084F8A802080607D501F00701C9
:10132000206803F05BFD04E0022010BD206803F09C
:1013300053FD002084F8A80210BD01F0070101EB65
:10134000810100EBC100D0F8840170472DE9F04124
:1013500004460F0601F0070000EB800104EBC10119
:101360004FF001064FF0000503D581F829602831C0
:1013700003E081F8695101F5B47108700A61CB701E
:101380004A7802B1C881022B00D10D7194F8A802ED
:10139000012809D084F8A862206803F08DF8284657
:1013A00084F8A852BDE8F0810220FBE770B50C4636
:1013B00001F0070505EB850100EBC101C1E95F23E1
:1013C0000022C1F8842181F8692181F8685101F572
:1013D000B4716207006803F08FFA002070BD70B529
:1013E00004460D4601F007006168884201D90120DA
:1013F00070BD29064FF000064FF0010207D500EB43
:10140000800104EBC10181F82920283107E005EBB8
:10141000850104EBC10181F8696101F5B4718A703D
:10142000087094F8A802012807D084F8A822206840
:1014300003F049FA680702D006E0022070BD04F507
:101440002C71206803F001FA84F8A862002070BDB6
:1014500070B50C4601F0070505EB850100EBC101F5
:10146000C1E90F23012281F84C208B6400234B64D7
:1014700081F8292001F8285F6207006803F03CFA30
:10148000002070BD1FB50446006803F0AFFC0004E7
:1014900002D5204601F056FD206803F0A7FC400568
:1014A0000CD5206830F8441F21F48061018020466B
:1014B00000F01EF90021204600F035F9206803F005
:1014C00095FC400405D5206830F8441F21F4804184
:1014D0000180206803F08AFC800405D5206830F87C
:1014E000441F21F400510180206803F07FFCC004F8
:1014F00014D5206830F8401F21F0040101802068D5
:1015000030F8401F21F008010180204600F003F967
:10151000206830F8441F21F480510180206803F0D6
:1015200065FC00053ED522680020694632F820306F
:1015300021F81030401CC0B20828F7D332F8400F11
:1015400040F001001080206830F8402F22F00102A6
:1015500002802068B0F844205205FBD530F8442FB3
:1015600022F4806202800020236831F8102023F8E2
:101570002020401CC0B20828F6D3206830F8401F55
:1015800041F008010180206830F8441F21F4006117
:101590000180206830F8401F41F00401018020469E
:1015A00000F0F6F8206803F021FC800508D52068DB
:1015B00030F8441F21F400710180204600F0AFF89C
:1015C000206803F013FCC00505D5206830F8441FDF
:1015D00021F4807101801FBD2DE9F04186B0040027
:1015E00004D094F8A902002520B108E0012006B03B
:1015F000BDE8F08184F8A852204600F05BF8032093
:1016000084F8A902206803F019F904F110011422EA
:1016100088466846FEF786FD94E80F0003F078F8E8
:101620000226D0BB0021206803F0FAFB002001272E
:101630000FE000BF00EB800104EBC10181F82970CD
:1016400001F8280FC881CD700D614D61401CC0B2FA
:101650008D6161688142EDD8002011E000EB8001CE
:1016600004EBC10181F8695181F8680181F86B517F
:10167000C1F87851C1F87C51401CC0B2C1F880510A
:1016800061688142EAD8142241466846FEF74AFD65
:1016900094E80F0003F0C9F810B184F8A962A5E737
:1016A00084F8245084F8A972206803F0BCF8002064
:1016B0009DE7000008B500680B49884212D10B482D
:1016C000C16941F40001C161C069002200F4000059
:1016D000009011461420FFF7DBFBBDE80840142002
:1016E000FFF7C8BB08BD0000005C004000100240CE
:1016F00070B5044680680125022801D0FFF7A0F8E4
:101700002946D4F8E80202F0AEFCD4F8E802BDE8BD
:10171000704002F06ABCD0F8E80202F08EBCD0F84B
:10172000E80202F094BC10B5044690F8A802012823
:101730000BD0012084F8A80284F82410206803F05C
:1017400071FB002084F8A80210BD022010BDD0F863
:10175000E82200F52C71104602F091BC10B5044649
:1017600090F8A802012810D0012084F8A80220686F
:1017700003F029FB01212046FFF7DAFB206803F084
:1017800050F8002084F8A80210BD022010BD00000F
:1017900010B50446D0F8E80202F0B0FCA0690028B9
:1017A00004D00348016841F00601016010BD00004B
:1017B00010ED00E02DE9F84305460078354CC007F0
:1017C00054D0E0690026C00008D4E06940F08050A1
:1017D000E061E069012600F0805000902E48016829
:1017E000C90512D40168804641F480710160FFF799
:1017F000E3FA074605E000BFFFF7DEFAC01B6428E6
:1018000023D8D8F80000C005F6D5206A10F440703F
:1018100021D0A98801F4407181421CD0206A1F495F
:10182000012220F440700A6000220A602062C00792
:1018300011D0FFF7C1FA074641F2883808E000BF2F
:10184000FFF7BAFAC11B414502D90320BDE8F8836E
:10185000206A8007F4D5206A696820F44070084344
:1018600020621EB1E06920F08050E0612878800796
:1018700005D56068A96820F4404008436060287876
:10188000C00605D56068E96820F480000843606000
:101890000020DBE70010024000700040400442429C
:1018A0002DE9F0470F46050061D0434E306800F047
:1018B0000700B84209D2306820F007003843306092
:1018C000306800F00700B84251D128683B4C8107CE
:1018D00012D5400703D5606840F4E0606060287866
:1018E000000703D5606840F4605060606068A968D4
:1018F00020F0F000084360602878C00728D06868AE
:10190000012810D02168022810D0890700292EDA7A
:10191000616821F0030101436160FFF74DFA8046E1
:1019200041F288390DE021688903EFE78901EDE78D
:10193000FFF742FAA0EB0801494502D90320BDE8B0
:10194000F0876068696800F00C00B0EB810FEFD1A0
:10195000306800F00700B8420BD9306820F007006B
:1019600038433060306800F00700B84201D00120F1
:10197000E5E72878400705D56068E96820F4E0606D
:10198000084360602878000706D56068296920F45C
:10199000605040EAC100606000F018F86168084AD1
:1019A000C1F30311515CC84006490860064800684D
:1019B000FFF722FA0020C2E7002002400010024098
:1019C00038510008A40000209C00002012A185B01E
:1019D0000FC98DE80F0014A0144A006804905168E4
:1019E000134801F00C03042B10D0082B0ED1C1F3C7
:1019F0008343C9031DF803000AD5516804AAC1F343
:101A00004041515C0A4A5043B0FBF1F005B07047C9
:101A100008494843FAE700000203040506070809DD
:101A20000A0B0C0D0E0F10100102000000100240F6
:101A300000127A0000093D002DE9F84F040070D033
:101A40002078C04DC00749D06868C0F381000128E4
:101A500007D06868C0F38100022809D16868C00314
:101A600006D52868800339D560680028E7D035E0BE
:101A70006068B0F5803F0BD010B1B0F5A02F11D049
:101A8000286820F480302860286820F4802002E054
:101A9000286840F480302860606890B1FFF78CF9C6
:101AA00006460AE0286840F480202860F0E700BF7E
:101AB000FFF782F9801B642873D828688003F7D564
:101AC0000CE0FFF779F9064605E000BFFFF774F96F
:101AD000801B6428F0D828688003F7D420789A4EB9
:101AE00080074FF001094FF0000839D5686810F001
:101AF0000C0F07D06868C0F38100022809D168681C
:101B0000C00306D42868800714D52069012808D1AD
:101B100010E02069B0B1C6F80090FFF74DF9074614
:101B200005E00AE1FFF748F9C01B0228C4D828687D
:101B30008007F7D52868616920F0F80040EAC10005
:101B400028600DE0C6F80080FFF736F9074604E08C
:101B5000FFF732F9C01B022823D828688007F7D482
:101B6000207800072CD57948A169D9B1C0F8009038
:101B7000FFF722F9074604E0FFF71EF9C01B022811
:101B80000FD8686A8007F7D571484FF4FA5100689A
:101B9000B0FBF1F0009000BF0098411E0091FAD216
:101BA0000EE080E0C0F80080FFF706F9074604E089
:101BB000FFF702F9C01B022875D8686A8007F7D4BE
:101BC0002078400760D5E8690027C00008D4E8699C
:101BD00040F08050E861E869012700F080500090F3
:101BE0005C480168C90513D40168834641F48071DB
:101BF0000160FFF7E1F8824606E000BFFFF7DCF87E
:101C0000A0EB0A0064284ED8DBF80000C005F5D52B
:101C1000E06801280AD008B1052813D0286A20F00E
:101C200001002862286A20F0040002E0286A40F0DF
:101C300001002862E06841F2883B98B1FFF7BCF8E8
:101C400082460BE0286A40F004002862EEE700BFFD
:101C5000FFF7B2F8A0EB0A0159455AD8286A800765
:101C6000F6D50CE0FFF7A8F8824605E0FFF7A4F8E8
:101C7000A0EB0A0159454CD8286A8007F6D41FB159
:101C8000E86920F08050E861E06988B36968C1F3D1
:101C90008101022944D00228C6F8608004D0FFF7F1
:101CA0008BF8044638E034E0FFF786F8074604E096
:101CB000FFF782F8C01B02282BD828688001F7D4D0
:101CC000206AB0F5803F05D16868A16820F4003033
:101CD00008436860D4E908010843696821F4741175
:101CE00008436860C6F86090FFF766F8044606E0AF
:101CF00025E000BFFFF760F8001B022809D828681C
:101D00008001F7D51BE000BFFFF756F8001B022843
:101D100002D90320BDE8F88F28688001F4D40EE0D2
:101D20000128F7D06868226A00F48031914204D11A
:101D3000616A00F47010884201D00120EAE70020B7
:101D4000E8E70000001002400000424280044242E6
:101D5000A40000200070004010B5040011D0022043
:101D600084F851002068016821F04001016020469C
:101D700000F076F80020606584F8510084F8500087
:101D800010BD012010BD000070B5054600F00AF836
:101D9000034C6061284600F007F8A06170BD0000A8
:101DA00000000020406D704790F85100704770B5FA
:101DB000040009D0606A002540B125616561A56213
:101DC00094F8510040B10CE0012070BD6068B0F59E
:101DD000827FF4D0E561F2E784F85050204600F0AD
:101DE0005BF8022084F851002068016821F040016E
:101DF0000160A088218900F4827001F40441084345
:101E0000A18901F400610843217C01F0020108432B
:101E1000217D01F001010843218B01F40071084389
:101E2000217F01F03801084394F8201001F080016F
:101E30000843218D01F40051084321680860A0691E
:101E4000042101EA1040216848602068C16921F43A
:101E50000061C1616565012084F85100002070BDFA
:101E600010B504460068094988420ED10848C16986
:101E700021F48041C1614FF420410648FEF720FE65
:101E8000E06CBDE81040FEF7DDBC10BD003800403E
:101E900000100240000C014070B586B000250646D7
:101EA00000950195029503950068194988422CD147
:101EB0001849C86940F48040C861C86900F480408E
:101EC0000490886940F0080088618869694600F0DC
:101ED000080004904FF4204000900F48FEF76EFE7B
:101EE0000F4C0E48C4E900058020C4E902502020B0
:101EF0002561C4E90550C001E0612046FEF77AFD86
:101F000008B1FEF79DFCF464666206B070BD000087
:101F10000038004000100240000C01404400024024
:101F2000140200202DE9F0410446002680680423B5
:101F300018B96568B5F5827F0ED094F85050012D20
:101F400013D0012784F8507094F851C00025BCF1DB
:101F5000010F0DD0022654E084F851302046BDE830
:101F6000F04113460A4600F061B80220BDE8F08156
:101F700071B16AB184F851306565A163A287E287C7
:101F800025646564A586E586B0F5004F02D00BE0B8
:101F9000012636E02068016821F0400101602068D8
:101FA000016821F480410160E16C1848C862E16C6D
:101FB00017488862E16C17480863E06C4563E38F5B
:101FC0002168A26B0C31E06CFEF742FD38B1606D08
:101FD00040F010006065012684F8517011E020681F
:101FE0000168490603D4016841F04001016020689E
:101FF000416841F0200141602068416841F00101E1
:10200000416084F850503046B0E700006532000867
:1020100079320008433200080248816801F5005116
:102020008160704700000020704700002DE9F041FA
:10203000044690F85000002601280DD0012784F8AE
:10204000507094F851000025D4F804C001280FD036
:10205000BCF5827F0AD102E00220BDE8F081D4F80D
:1020600008C0BCF1000F01D1042801D0022660E0B5
:1020700049B342B33BB394F85100042802D0052081
:1020800084F8510065652163A386E386A263A38774
:10209000E3872564656494F85100042815D0E16C49
:1020A0002648C8622648E16C8862E16C25480863CE
:1020B000E06C4563E38F2168A26B0C31E06CFEF7A6
:1020C000C7FCE0B906E0012633E0E16C1E48C862B7
:1020D0001E48E8E72068416841F001014160A06CBA
:1020E000C562A06C8562A06C0563A06C4563E38E3D
:1020F0002268216B0C32A06CFEF7AAFC38B1606D2F
:1021000040F010006065012684F8517011E02068ED
:102110000168490603D4016841F04001016020686C
:10212000416841F0200141602068416841F00201AE
:10213000416084F8505030468FE700006F3200084D
:10214000E3320008433200086532000879320008A3
:102150007047704710B5401EB0F1807F01D3012059
:1021600010BD4FF0E02460610F21601702F074FE93
:102170000020A06107202061002010BD704770473B
:1021800070B590F83C20012A26D0012480F83C400C
:10219000022280F83D2003685A689D6822F070068C
:1021A0000A6832435A600D4B02689A4208D0B2F175
:1021B000804F05D00A4B9A4202D00A4B9A4204D172
:1021C000496825F080031943916080F83D40002163
:1021D00080F83C10084670BD022070BD002C014004
:1021E000000400400008004010B5040003D094F83B
:1021F0003D0010B107E0012010BD002084F83C0034
:10220000204600F01FF8022084F83D00211D2068C0
:1022100001F080F9012084F8460084F83E0084F83B
:102220003F0084F8400084F8410084F8420084F8BC
:10223000430084F8440084F8450084F83D00002001
:1022400010BD000000B585B0002100910191029100
:10225000039101682B48B1F1804F15D02A4A914271
:102260002FD1C16941F00201C161C069002200F0B3
:102270000200049011461D20FEF70AFE5FF01D00CB
:10228000FEF7F8FD05B000BDC16941F00101C16173
:10229000C16901F001010491816941F0040181618A
:1022A0008069694600F004000490012000901748FE
:1022B000FEF784FC002211461C20FEF7E9FD1C20DD
:1022C000DEE7134A9142DDD1C16941F00401C161E9
:1022D000C16901F004010491816941F00801816143
:1022E0008069694600F00800049080200090094849
:1022F000FEF764FC002211461E20FEF7C9FD1E20D9
:10230000BEE7000000100240000400400008014049
:1023100000080040000C0140704710B50446022040
:1023200084F83D002068016A41F21112114207D180
:10233000016A9210114203D1016821F0010101608C
:10234000204600F018F8002084F8460084F83E008B
:1023500084F83F0084F8400084F8410084F842008B
:1023600084F8430084F8440084F8450084F83D0074
:1023700084F83C0010BD704710B5044651B10429E3
:102380000DD0082910D094F8410094F84520012878
:1023900011D10EE094F83E0094F84220F7E794F84B
:1023A0003F0094F84320F2E794F8400094F844206A
:1023B000EDE7012A01D0012010BD022051B104290E
:1023C00011D0082918D084F8410084F845000C2960
:1023D0001BD136E084F83E0084F842002068C268D1
:1023E00042F0020210E084F83F0084F843002068C5
:1023F000C26842F0040207E084F8400084F8440018
:102400002068C26842F00802C2600122206801F020
:10241000B7F80E492068884208D0B0F1804F05D047
:102420000B49884202D00B49884204D1816801F0EF
:102430000701062903D0016841F001010160002075
:1024400010BD2068C26842F01002DDE7002C014098
:10245000000400400008004030B5044600680D004C
:1024600006D0042D08D0082D28D00C2D08D129E045
:10247000C16821F0020102E0C16821F00401C160DD
:1024800000222946206801F07BF82068016A41F2A9
:102490001112114207D1016A9210114203D1016851
:1024A00021F001010160012085B1042D11D0082D1A
:1024B00012D004F8410F2071002030BDC16821F016
:1024C0000801DCE7C16821F01001D8E704F83E0FED
:1024D000F1E704F83F0FEEE704F8400FEBE770B5C3
:1024E0000446006801694FF00005C943890715D407
:1024F000C168C943890711D4E91E01610120207711
:10250000206880698007204602D0FFF705FF04E0BD
:1025100000F008F9204600F0F9FA257720680169F3
:10252000C943490717D4C168C943490713D46FF099
:1025300004010161022020772068806910F4407F47
:10254000204602D0FFF7E8FE04E000F0EBF820465A
:1025500000F0DCFA257720680169C943090716D421
:10256000C168C943090712D46FF008010161042052
:1025700020772068C0698007204602D0FFF7CCFE94
:1025800004E000F0CFF8204600F0C0FA257720687C
:102590000169C943C90617D4C168C943C90613D420
:1025A0006FF010010161082020772068C06910F4E5
:1025B000407F204602D0FFF7AFFE04E000F0B2F803
:1025C000204600F0A3FA257720680169C943C907AE
:1025D00008D1C168C943C90704D1891E01612046D9
:1025E00000F0E0FA20680169C943090609D4C1680E
:1025F000C943090605D46FF0800101612046FFF749
:10260000BDFD20680169C943490609D4C168C943B1
:10261000490605D46FF040010161204600F0EEFA52
:1026200020680169C94389060BD4C168C94389067A
:1026300007D46FF0200101612046BDE87040FFF72C
:102640009EBD70BD30B585B0002100910191029111
:10265000039103681B4A02211B48B3F1804F15D038
:102660001A4D4024AB421BD1936943F0040393619C
:102670009269CDE9004102F0040200BFCDE90312E6
:102680004FEA0D01FEF79AFA05B030BD936943F0A9
:10269000040393619269009102F004020191EDE755
:1026A0000B488342F0D1906940F008009061906936
:1026B000CDE9004100F00800CDE903106946054866
:1026C000E0E7000000100240000801400004004064
:1026D00000080040000C014010B5044690F83C0092
:1026E00001280AD0012084F83C0042B1042A0AD013
:1026F000082A0CD00C2A11D10DE0022010BD206850
:1027000000F056FF0AE0206800F07AFF06E020683B
:1027100000F0A2FF02E0206800F0CAFF002084F869
:102720003C0010BD704710B5040003D094F83D0084
:1027300010B107E0012010BD002084F83C002046C5
:1027400000F01EF8022084F83D00211D206800F0F2
:10275000E1FE012084F8460084F83E0084F83F0042
:1027600084F8400084F8410084F8420084F8430073
:1027700084F8440084F8450084F83D00002010BD32
:10278000704710B50446022084F83D002068016AB5
:1027900041F21112114207D1016A9210114203D184
:1027A000016821F001010160204600F03BF80020A3
:1027B00084F8460084F83E0084F83F0084F8420024
:1027C00084F8430084F83D0084F83C0010BD70B5E7
:1027D0000D46040003D094F83D0010B107E001203D
:1027E00070BD002084F83C00204600F01CF8022058
:1027F00084F83D00211D206800F08CFE20680168EF
:1028000021F00801016054F8460B0168294301607A
:10281000012004F81F09E0752076E0762077A07586
:10282000002070BD7047704710B590F83E300446E8
:1028300090F83F2090F8421090F84300012B05D10A
:10284000012A03D1012901D1012801D0012010BDA5
:10285000022084F83E0084F83F0084F8420084F8A7
:10286000430001220021206800F08AFE0122042199
:10287000206800F085FE05492068884203D1416C3C
:1028800041F400414164002010BD0000002C0140D3
:1028900010B590F83E30044690F83F2090F8421072
:1028A00090F84300012B05D1012A03D1012901D160
:1028B000012801D0012010BD022084F83E0084F8D8
:1028C0003F0084F8420084F843002068C16841F06A
:1028D0000201C1602068C16841F00401C1600122A9
:1028E0000021206800F04CFE01220421206800F045
:1028F00047FE05492068884203D1416C41F40041FC
:102900004164002010BD0000002C014010B50446B9
:1029100000220068114600F033FE002204212068E6
:1029200000F02EFE114B41F2111120688A109842DE
:1029300009D1036A0B4206D1036A134203D1436CE7
:1029400023F4004343642068036A0B4206D1016A02
:10295000114203D1016821F001010160012004F856
:102960003E0F607020716071002010BD002C01408E
:1029700010B504460068C16821F00201C1602068FA
:10298000C16821F00401C16000221146206800F0F6
:10299000F7FD00220421206800F0F2FD114B41F206
:1029A000111120688A10984209D1036A0B4206D19E
:1029B000036A134203D1436C23F400434364206849
:1029C000036A0B4206D1016A114203D1016821F06A
:1029D00001010160012004F83E0F607020716071F8
:1029E000002010BD002C014070B5044690F83C005A
:1029F0000D4601280AD0012084F83C0042B1042A87
:102A000018D0082A2AD00C2A4DD139E0022070BDF6
:102A1000206800F0CDFD2068816941F008018161E6
:102A20002068816921F004018161206881692A6937
:102A3000114311E0206800F0E3FD2068816941F452
:102A4000006181612068816921F480618161206871
:102A500081692A6941EA0221816124E0206800F04D
:102A6000FBFD2068C16941F00801C1612068C169AE
:102A700021F00401C1612068C1692A69114311E094
:102A8000206800F015FE2068C16941F40061C16151
:102A90002068C16921F48061C1612068C1692A6927
:102AA00041EA0221C161002084F83C0070BD10B5EC
:102AB000040003D094F83D0010B107E0012010BDE0
:102AC000002084F83C00204600F01EF8022084F824
:102AD0003D00211D206800F01DFD012084F8460006
:102AE00084F83E0084F83F0084F8400084F84100F8
:102AF00084F8420084F8430084F8440084F84500D8
:102B000084F83D00002010BD70470000234B24498D
:102B1000A3F14802834210D1007F01280CD1C8697B
:102B2000401CC8611068416941F0010141611068B1
:102B3000016841F00101016070478242FCD1007FD1
:102B40000228F9D11868426A4B6A1A444A624269FB
:102B500042F001024261114848300068426942F087
:102B600001024261C868401CC860886808610B485F
:102B70008C38006840680004000C04D00A69C0F575
:102B80000050104408610A69086B00F50050824249
:102B9000D2D3086A401C086270470000A0020020DF
:102BA00000000020704770B5044690F83C000128F2
:102BB00012D0012584F83C50022084F83D002046C4
:102BC00000F098FD01004FF0000007D084F83D5060
:102BD00084F83C00012070BD022070BD2168CA68E5
:102BE00022F04002CA602168CA6822F48042CA60AA
:102BF00084F83D5084F83C00002070BD7047FEE72B
:102C0000F0B500230A24302537261F4611E000BF07
:102C1000B4EB107F02D905EB107C01E006EB107CD1
:102C200001F813C001EB430C00015B1C8CF8017030
:102C3000DBB29342ECD3F0BD70B586B000241C48E3
:102C40000094019402940394816941F01001816120
:102C5000816901F010010491816941F020018161D5
:102C6000816901F020010491816941F004018161D1
:102C7000816901F004010491816941F008018161D9
:102C800080690C4E00F008004FF4005504900022BB
:102C900029463046FEF78AF801200095CDE9010467
:102CA0000220039069463046FDF788FF06B070BDEC
:102CB00000100240001001400E4810B50C490160A0
:102CC00000214FF48062C0E901120122C160C0E915
:102CD00004125202C0E906210162416281620A21A6
:102CE000C162FFF764F8002801D072B6FEE710BD9C
:102CF00000380040BC01002010B58EB0142107A898
:102D0000FDF729FA00240C941C2168460D94FDF768
:102D100022FA23484FF08041C0E9001440F6426196
:102D2000C0E9024104618461FFF75EFA08B172B63E
:102D3000FEE71B48FFF7BBFE08B172B6FEE70821AD
:102D40001748FFF744FD08B172B6FEE7062007906A
:102D50005020CDE9080407A911480B94FFF723FF81
:102D600008B172B6FEE70C940CA90D480D94FFF75C
:102D700007FA08B172B6FEE77020009040F61260C4
:102D8000CDE901040422694605480494FFF72CFEAE
:102D900008B172B6FEE70248FFF754FC0EB010BD52
:102DA0005802002030B58FB0142107A8FDF7D3F9E1
:102DB00000240C941C2168460D94FDF7CCF91E48A4
:102DC0001C490725C0E90014C0E90245046184617B
:102DD000FFF70AFA08B172B6FEE71748FFF7A3FC3F
:102DE00008B172B6FEE73020CDE9075007A91248B6
:102DF000FFF7D9FE08B172B6FEE70C940CA90E4895
:102E00000D94FFF7BDF908B172B6FEE710200090EF
:102E10000120CDE901040022694607480494FFF728
:102E20005BFC08B172B6FEE70348FFF70BFC0FB07E
:102E300030BD000000040040A002002010B58EB09C
:102E4000142107A8FDF787F900240C941C2168467B
:102E50000D94FDF780F924482249C0E9001425218A
:102E6000C0E9024104618461FFF7BEF908B172B69E
:102E7000FEE71D48FFF71BFE08B172B6FEE708210A
:102E80001948FFF7A4FC08B172B6FEE706200790C8
:102E90006020CDE9080407A913480B94FFF783FECF
:102EA00008B172B6FEE73020CDE90C040CA90E483B
:102EB000FFF766F908B172B6FEE7702000900120B6
:102EC000CDE9010404200490002269460648FFF77A
:102ED0008BFD08B172B6FEE70348FFF7B3FB0EB0F7
:102EE00010BD000000080040E802002010B50022DC
:102EF0000F49104800F03CFF08B1FDF7A1FC0E4956
:102F00000C4801F021F908B1FDF79AFC0B4909487A
:102F100000F03AFD08B1FDF793FC064801F06AF9AC
:102F2000002803D0BDE81040FDF78ABC10BD0000AA
:102F30003400002030230020840100208400002081
:102F4000FEE7FEE72DE9F84F044640F68F7B48F692
:102F50000F7A4FF002094FF4806868E1B0F844102E
:102F600011F00F0638D030F8267039047ED530F8CD
:102F7000261001EA0B0141F0800120F8261006EB33
:102F8000860004EBC00595F8740105F5B4750028BA
:102F90006DD0E87802286BD02A78216831F82200B9
:102FA00048F68F73184048F2C003184321F82200F6
:102FB0002978206830F82120B0F8503052047DD5AF
:102FC00009EBC1015A1808EB4201415A8905890DE4
:102FD000009174D02A89D2E0C9062DD4018801EA73
:102FE0000A0141F400410180206804F12805B0F88D
:102FF00050302A7809EBC2015A1808EB4201405AB6
:10300000C0F309006064E16B0844E06300212046DE
:10301000FDF78FFF94F8240000289ED0A8690028AF
:103020009BD194F8240040F080012068A0F84C1057
:10303000002084F82400FAE0018804F5B4750A053C
:1030400021D5B0F850302A78062101EBC2015A1878
:1030500008EB4201405A04F52C71C0F30903EB61FF
:10306000EA88206801F0C6FE216802E0A2E062E082
:1030700072E0088800EA0B0040F0800008802046DB
:10308000FEF765FBD3E00904D5D5018801EA0B0101
:1030900041F0800101802068B0F850202B78062193
:1030A00001EBC3010A4408EB4201405A83059B0D22
:1030B000EB6110D0696971B1EA8801E053E051E039
:1030C000206801F097FEE969686908446861002199
:1030D0002046FDF737FF2068B0F8501008442969F2
:1030E00000F20C4051B13E2910D84A08C90700D05F
:1030F000521C4FF6FF7101EA82210FE0018821F492
:10310000F8410180018841F4004107E04A09C906FD
:1031100000D1521E4FF4004141EA82210180206813
:1031200001884BF68F72114081F4405148F28002C1
:10313000114301807BE02068B0F850102A78062304
:1031400003EBC2020A4408EB4201415A8905890D8A
:10315000009118D0EA8812E03A4629462046FDF749
:103160004FFF00900FE0062202EBC1015A1808EB56
:103170004201415A8905890D009104D06A89696923
:10318000009B01F037FEE96900980844E86169692D
:10319000009808446861A86918B1296900988142BB
:1031A00004D929782046FDF7CDFE03E029462068A2
:1031B00001F0A2FB38063AD5226806EB860004EB44
:1031C000C00132F8260000EA0A0040F4004022F86C
:1031D000260091F82B002831022801D1F80522D4CD
:1031E0002268B2F850300D7809EBC500034408EBB3
:1031F0004300105A8A69C0F3090082420CD9121A9E
:103200008A610BD04A6902444A61CA691044C861A4
:10321000206801F071FB0AE000208861E9B22046D5
:10322000FDF787FE03E03A462046FDF75CFF206885
:10323000B0F8441009043FF591AE0020BDE8F88FC6
:10324000704710B5406A01684A6822F003024A607C
:10325000416D41F010014165012180F85110FEF7E8
:1032600093FD10BD10B5406AFEF7DEFE10BD10B52F
:10327000406AFEF76EFF10BD70B50546446AFDF763
:103280009BFD024628680068800626D420684168B5
:1032900021F020014160A06818B96068B0F5827F14
:1032A00016D02068416821F0010141606421204668
:1032B00000F044F808B1202060650020E08701207C
:1032C00084F85100606D40B12046FEF75DFD70BD91
:1032D0002068416821F00301E7E72046FEF79CFEE5
:1032E00070BD70B50546446AFDF766FD0246286864
:1032F000006880061ED42068416821F020014160EA
:103300006421204600F048F818B1606D40F02000BC
:1033100060652068416821F0030141600020E0867B
:10332000E087012084F85100606D18B12046FEF757
:103330002BFD70BD2046FEF70BFF70BDF8B50446AF
:1033400040684FF48273984217D1A0684FF48065AB
:10335000B0F5004F01D0A8420FD12068066826F0D2
:10336000400606606068984207D1A068A84204D170
:1033700000920B460022012103E000920B4600223E
:103380008021204600F018F8002804D0606D40F03D
:10339000200060650320F8BD38B50B460092044656
:1033A0000022802100F008F8002804D0606D40F071
:1033B00020006065032038BD2DE9F8431E46914684
:1033C00088460446089DFDF7F7FC401B351AFDF7BB
:1033D000F3FC074625480068C0F3CB30684338E06B
:1033E000701C37D0FDF7E8FCC01BA84203D215B112
:1033F000009860B32CE02068416821F0E001416052
:103400006068B0F5827F0BD1A068B0F5004F02D0A4
:10341000B0F5806F04D12068016821F0400101609F
:10342000A06AB0F5005F09D12068016821F400515D
:1034300001602068016841F400510160012084F8B6
:103440005100002084F850000320BDE8F8830025D7
:10345000401E00902068816838EA010004D00021F5
:103460004945BDD10020F0E70121F9E7A400002083
:103470007047FDF7A7BC30B593B028216846FCF72C
:103480006AFE14210AA8FCF766FE002401200F94AE
:1034900010941194010412948DE8130004904FF4D9
:1034A000E010CDE90810022507956846FEF7C4FA3A
:1034B00008B172B6FEE70F20CDE90A054FF480602F
:1034C000CDE90C4002210AA80E94FEF7E9F908B1F3
:1034D00072B6FEE710200F9012940FA8FEF76AF95B
:1034E000002801D072B6FEE713B030BD704700006F
:1034F0000148FEF7F4BF0000580200200148FEF723
:10350000EEBF0000A00200200148FEF7E8BF000067
:10351000E8020020F0B50268164B174C174D4FF02B
:103520008047984205D0B84203D0A04201D0A842BB
:1035300003D122F070064A683243984205D0B8425F
:1035400003D0A04201D0A84203D122F44074CA683B
:1035500022434C6922F08002224302608A68C262E0
:103560000A688262984201D10969016301214161BF
:10357000F0BD0000002C01400004004000080040A5
:1035800010B501F01F030121046A99408C430462C5
:10359000016A9A401143016210BD10B5846842EA85
:1035A000032224F47F440A432243826010BD0000BA
:1035B00030B5026A22F001020262026A436884693D
:1035C00024F073050C682C4322F002058A682A4314
:1035D0000A4DA8420BD122F00805CA6823F44073B3
:1035E0002A434D6922F004021D438B692B4343603B
:1035F000846149684163026230BD0000002C0140D3
:1036000030B5026A22F010020262026A43688469DD
:103610000D6824F4E64444EA05248D6822F0200273
:1036200042EA05120B4DA8420ED1CD6822F080026D
:1036300042EA05124D6923F4406343EA85038D692C
:1036400022F0400243EA8503436084614968816354
:10365000026230BD002C014030B5026A22F4807253
:103660000262036A4268C46923F4007324F073059C
:103670000C682C438D6843EA05230C4DA8420ED1FB
:10368000CD6823F4006343EA05234D6922F44052D8
:1036900042EA05128D6923F4806342EA0512426012
:1036A000C4614968C163036230BD0000002C014061
:1036B00030B5026A22F480520262046A4268C36929
:1036C0000D6823F4E64343EA05238D6824F400548F
:1036D00044EA0534064DA84204D14D6922F48042E3
:1036E00042EA85124260C36149680164046230BDE8
:1036F000002C014010B503689A6822F070044A68F3
:10370000224322F007040A6822439A604A6812F0B2
:103710000F0F30D11211082A2DD2DFE802F02C2C25
:103720002C2C0B2127040B69D1E902210068FFF73B
:1037300034FF20E00A68052A10D00268136A146A70
:1037400024F00104146202689469096924F0F00409
:1037500044EA01119161006803620CE0012010BD90
:103760000A698968006800F008F804E00A69896855
:10377000006800F013F8002010BD10B5036A046A59
:1037800024F001040462846924F0F00444EA021481
:1037900023F00A020A438461026210BD10B5036A75
:1037A00023F0100303628369046A23F4704343EA3D
:1037B000023224F0A00343EA01118261016210BDCC
:1037C0002DE9F041D0F8C032D0F8B822CAB101EBEF
:1037D000810500EB85040026E7693FB103EBC503D3
:1037E0009B6BB7FBF3F503FB157323B1C2F81462AF
:1037F0000020BDE8F08100231A46E66100F087FC56
:10380000F6E70220F5E770B50546D0F8B84200F0BB
:1038100083FBC4F80C02D5F8B80248B1D5F8BC1245
:10382000D4F80402CA6804F503719047002070BD03
:10383000022070BD70B504460026812100F0B6FA62
:10384000002501212046E56200F0B0FA82212046E1
:10385000C4F86C5100F0AAFA2564D4F8B80248B153
:10386000D4F8BC0204F52E7440688047206800F04C
:103870001EFE2560304670BD10B5D0E9AE4159B18D
:1038800094F80002FF2807D08B6894F801222146A3
:103890009847FF2084F80002002010BD0A21018013
:1038A00000487047AC000020432101800048704769
:1038B000FC0000204321018000487047B800002030
:1038C0004321018000487047400100202DE9F0416C
:1038D00004460026007C4FF40077012590B3402376
:1038E00002228121204600F06BFB4023E562022288
:1038F0000121204600F064FB082303228221204698
:10390000C4F86C5100F05CFB4FF40770256400F0C4
:10391000CFFDC4F8B802F8B10546D4F8BC0200687F
:1039200080470020C5F81402C5F81802207CD5F89D
:10393000042298B140230121204600F04DFB30467F
:10394000BDE8F081FFE73B4602228121204600F0DE
:1039500037FB3B46E562CAE70126F0E73B46EAE76C
:1039600010B5D0F8B81269B1027C002AD1F804224F
:1039700005D04023012100F02FFB002010BD4FF4A3
:103980000073F7E7022010BD02460220002902D092
:103990000020C2F8BC127047D0F8B802C0F8041278
:1039A00000207047D0F8B802C0F81022C0F8081202
:1039B000002070472DE9FC410546D0F8B872002080
:1039C0008DF80000ADF80400064608780C4610F0AB
:1039D000600121D020293BD1E288AAB1000660789D
:1039E00007D5D5F8BC128B6839469847E288394626
:1039F00026E087F80002A07987F80102E2883946BC
:103A0000284600F06AF828E0D5F8BC126078002259
:103A10008B682146984720E0607820B10A2809D0B9
:103A20000B2815D110E095F89C02032810D1022232
:103A300001A905E095F89C02032809D101226946F5
:103A4000284600F064F808E095F89C02032804D0AA
:103A50002146284600F036F802263046BDE8FC81B3
:103A600010B5D0F8B812A1B1D1F814220AB10120D2
:103A700010BD0122C1F81422D1F810220263B1F85E
:103A8000102293B2D1F80822812100F040FB0020DF
:103A900010BD022010BD10B5D0F8B4225268904776
:103AA000002010BD134610B50A46002100F094FA1C
:103AB000002010BD134610B50A46002100F027FB78
:103AC000002010BD10B50446802100F005FB204603
:103AD000BDE81040002100F0FFBA10B50323C0F884
:103AE0005C21C0F89432C0F8602113460A460021D8
:103AF00000F072FA002010BD10B505210023C0F8B7
:103B000094121A46194600F067FA002010BD10B54D
:103B10000223C261C0F89432026213460A460021B1
:103B200000F0F5FA002010BD10B504210023C0F804
:103B300094121A46194600F0EAFA002010BD00005F
:103B400010B50A46024903A000F0E2F8004810BD93
:103B5000F425002043444320436F6E6669670000EC
:103B600012200880004870475400002010B50A4613
:103B7000024903A000F0CCF8004810BDF425002055
:103B800043444320496E74657266616365000000BA
:103B900004200880004870475000002010B50A46F5
:103BA000024903A000F0B4F8004810BDF42500203D
:103BB00053544D6963726F656C656374726F6E699F
:103BC0006373000010B50A46024903A000F0A0F894
:103BD000004810BDF425002053544D33322056695F
:103BE000727475616C20436F6D506F7274000000C9
:103BF00010B51A2008800A480168001D0468001DDD
:103C00000068081809D008220649FEF7F9FF05499F
:103C1000042210312046FEF7F3FF0248801E10BD3B
:103C2000E8F7FF1F6A000020F8B504460020ADF851
:103C3000000048880D46010A082948D2DFE801F053
:103C40004704091747473C45D4F8B012207C0A685E
:103C500019E0207C02260028D4F8B40205D0C16AFD
:103C600068468847014646703EE0816AF8E7C0B280
:103C700006282CD2DFE800F0030A1014181CD4F830
:103C8000B002426805E0694690471CE0D4F8B002F3
:103C90008268E2B1207CF6E7D4F8B002C268F8E7A7
:103CA000D4F8B0020269F4E7D4F8B0024269F0E750
:103CB000D4F8B0028269ECE7207C40B9D4F8B402B1
:103CC000416B6846884701460EE0207C20B12946BA
:103CD0002046FFF7F7FEF8BDD4F8B402016B684642
:103CE0008847014607204870BDF8000048B1EA88BF
:103CF00052B1824200D90246ADF800202046FFF7BB
:103D000006FFE8880028E6D12046FFF70DFFF8BD42
:103D100070B5002300281ED00446002502E06D1C6B
:103D2000EDB2641C2678002EF9D1022404EB450480
:103D300014801278CA545B1C0322CA5400245B1CF2
:103D400006E0CA545B1CDAB28C54521CD3B2401C3D
:103D50000278002AF5D170BD01004FF0000004D0B8
:103D6000012901D0022901D00220704701207047AB
:103D700010B580B1D0F8B43213B10023C0F8B4321A
:103D800009B1C0F8B012012180F89C12027000F055
:103D9000C7F8002010BD022010BD10B5D0F8C00239
:103DA000FDF700F9BDE81040FFF7D6BF10B5D0F819
:103DB000C002FDF7D1F8BDE81040FFF7CDBF2DE9F7
:103DC000F0411746044651B1D4F8B40242691AB121
:103DD00094F89C02032851D00220BDE8F081D4F869
:103DE0009432002504F11400022B03D0042B3AD0A6
:103DF000C3B33CE0D0E903639E4207D9F11AC16026
:103E00008AB239462046FFF755FE12E08068B0FBC3
:103E1000F3F103FB110199B9984211D3D4F8981228
:103E200088420DD2002211462046FFF743FEC4F817
:103E3000985200231A461946204600F0CDF816E0A5
:103E4000D4F8B402C16829B194F89C02032801D1C6
:103E5000204688478021204600F03EF92046FFF7A3
:103E60004BFE04E0FFE78021204600F035F994F88E
:103E7000A002012804D184F8A05201E02046904716
:103E80000020AAE770B51546044649B1D4F8B4023B
:103E900082691AB194F89C02032830D0022070BDC8
:103EA000D4F8941204F5AA70032902D005291ED073
:103EB00027E0D0E903218A420BD9531AC360084690
:103EC000834200D303469AB229462046FFF7EAFD13
:103ED00017E0D4F8B402016929B194F89C020328D0
:103EE00001D1204688472046FFF71EFE09E000204A
:103EF0000146C4F89402204600F0EEF801E02046A6
:103F00009047002070BD10B5D0F8C002FDF7FBF956
:103F1000BDE81040FFF720BFD0F8C002FDF70DBA92
:103F200010B504461C481D49C0F8E842C4F8C00258
:103F30000160082141600221816000218161C1612D
:103F40000162FDF749FB08B1FCF77AFC0022D4F8C6
:103F5000C0021823114604F53074FCF7CBFF582338
:103F6000002280212068FCF7C5FFC02300228121A8
:103F70002068FCF7BFFF4FF48873002201212068FE
:103F8000FCF7B8FF4FF48073002282212068FCF711
:103F9000B1FF002010BD0000942A0020005C00400A
:103FA0000A0601F07F01D0F8C00201EB810100EBAD
:103FB000C10002D590F82A00704790F86A01704756
:103FC00010B51C461346D0F8C0022246FDF7BEF9D4
:103FD000BDE81040FFF7C0BE10B5D0F8C002FDF735
:103FE000E5F9BDE81040FFF7B7BE70B50022044602
:103FF00040231146FFF7E4FF40260125C4F8646121
:104000003346002280212046C4F85851FFF7D8FFDC
:104010006662A56184F89C520020C4F89402606036
:10402000C4F8A402D4F8B80228B1D4F8B40200212C
:10403000426820469047002070BD90F89C120429E9
:1040400003D190F89D1280F89C120020704710B5A3
:1040500090F89C12032904D1D0F8B412C96901B1B7
:104060008847002010BD01740020704710B5D0F8BB
:10407000C002FDF758FBBDE81040FFF76DBE70B5FC
:10408000044600F52A70054600F04AF80120C4F8FD
:104090009402B4F8AE02C4F8980294F8A80210F0A2
:1040A0001F010AD001290DD0022910D000F0800193
:1040B000204600F011F8002070BD2946204600F08F
:1040C0009EF8F8E72946204600F0CAF9F3E72946AA
:1040D000204600F01DF9EEE710B5D0F8C002FDF75C
:1040E0007EF9BDE81040FFF737BE10B5D0F8C0022A
:1040F000FDF734FBBDE81040FFF72EBE90F89C1290
:1041000080F89D12042180F89C120020704710B5A1
:10411000D0F8C002FDF79CF9BDE81040FFF71CBEC7
:104120000A7802704A7842708A78CB7802EB0322D0
:1041300042800A794B7902EB032282808A79C9791D
:1041400002EB0121C18070470246002011B1C2F884
:10415000B41270470220704710B5D0F8B422022480
:104160001AB11268904700B90024204610BD000023
:1041700070B50E461E4D897804462970012931D844
:1041800094F89C0202280BD003280FD03146204619
:10419000FFF798FC29782046BDE87040FFF77BBC0C
:1041A000D9B10320616084F89C0209E071B16068B4
:1041B000884212D0C1B22046FFF76DFC29786160B9
:1041C0002046FFF7C9FF02280CD006E0022084F841
:1041D0009C0220466160FFF75EFC2046BDE870400F
:1041E000FFF7A2BC31462046BDE87040FFF76ABC2D
:1041F000A800002010B5FFF778FF002010BD2DE9C2
:10420000F0410A78002612F0600208D0202A01D07E
:10421000402A70D1D0F8B422926890476DE04B7874
:10422000002201250A2B66D2DFE803F0405D6557C6
:10423000650805652C29FFF7F7FC5EE004468888D1
:10424000D8B9C888C8B94888802816D200F07F0736
:1042500094F89C02032810D084F89E7239462046B8
:10426000FFF704FF2046FFF75FFC1FB1022084F830
:104270009C0242E084F89C523FE020463BE0FFF77E
:1042800077FF3AE0CB88012B35D190F89C32012B97
:1042900004D0022B02D0032B2DD104E08260012236
:1042A00000F1080116E00122011D13E090F89C22A4
:1042B000012A03D0022A01D0032A1CD1CA88022A6B
:1042C00019D1C560D0F8A41209B10321C16002223E
:1042D00000F10C01FFF71BFC0FE0498801290CD10C
:1042E000C0F8A45211E090F89C32012B08D0022BA8
:1042F00006D0032B04D0FFF7E5FB3046BDE8F08184
:1043000049880129F9D1C0F8A422FFF70DFCF4E790
:104310002DE9F0410A46044610780027097910F08B
:1043200060030AD0202B01D0402B50D1D4F8B40226
:1043300011468368204698478FE0C0F3411001285A
:1043400006D05078D0B301282AD003283FD107E007
:10435000D4F8B402114683682046BDE8F0411847FE
:1043600094F89C02022802D0032872D10AE071B3AB
:1043700080296ED02046FFF7AFFE80212046FFF750
:10438000ABFE6AE0508838B931B1802904D0D088BA
:1043900010B92046FFF7A0FE2046FFF7C5FB5CE002
:1043A00094F89C020228E2D0032852D1508898BB8E
:1043B0004806F1D02046FFF7F0FCEDE7FFE794F860
:1043C0009C020026022803D0032842D112E040E0DC
:1043D00009B180293DD1080601F07F0000EB800083
:1043E00004EB800101D5143101E001F5AA7102222C
:1043F0000E602AE0080601F00F0000EB800004EBDD
:1044000080000AD5806920B301F07F0000EB8000B6
:1044100004EB800514350BE01FE0D0F85801C0B163
:1044200001F07F0000EB800004EB800505F5AA7524
:1044300041B1802906D02046FFF7B2FD10B101201E
:10444000286000E02E60022229462046FFF75FFB2D
:1044500003E011462046FFF735FB3846BDE8F08102
:1044600070B5054608780C4610F0600003D020288F
:1044700001D0402816D195F89C02012803D00228CB
:1044800001D003280ED1207901280BD8D5F8B40229
:10449000826828469047E188014306D12846FFF705
:1044A00043FB02E02846FFF70DFB002070BD70477C
:1044B00000487047742800202DE9F0470C7800264A
:1044C00030F8243048F68F121340CA78002A7DD085
:1044D000012A7CD0022A02D0032A7FD0012648F28A
:1044E0008002134320F824300D7830F8254048F638
:1044F0008F731C402C43144320F825400D7B48F259
:10450000C00C48F6BF744CF280074BF68F79EDB3C0
:1045100091F80080C24630F8285048F280181D40BB
:1045200045EA080520F82A50B0F8505091F800806C
:10453000054405EB0815B1F8088028F00108A5F836
:104540000084B0F8505091F80080054405EB081540
:10455000B1F80A8028F00108A5F808844D78002DEC
:104560000D7830F825804FEA48487DD0B8F1000F2B
:1045700007DA30F8258008EA030848EA070820F837
:1045800025800F7830F827506D0600E02CE006D526
:1045900030F827501D4045EA0C0520F82750CB780D
:1045A0000D78012B30F8253003EA040301D083F0A5
:1045B0002003134320F825300B7830F8231001EA4C
:1045C0000901114320F82310304602E003E008E01F
:1045D00004E0BDE8F08743F4007380E743F4C06370
:1045E0007DE743F480637AE74D782DB3B0F85050FF
:1045F0000F78054405EB0715CF8827F00107A5F8CC
:1046000000740F7830F827506D0606D530F8275023
:104610001D4045EA0C0520F82750CB78012B06D029
:104620000B7830F82310214081F02001C9E70B7886
:1046300030F823102140C4E7B0F850400D7804440E
:1046400004EB0514CD8825F00105A4F80854B0F852
:1046500050400D78044404EB05140D6904F20C4439
:1046600075B13E2D14D800E030E04FEA550CED074F
:1046700001D00CF1010C4FF6FF7505EA8C2511E015
:10468000258825F4F8452580258845F4004509E06E
:104690004FEA551CED0601D1ACF1010C4FF4004579
:1046A00045EA8C2525800D7830F82540640405D531
:1046B00030F825401C403C4320F825400B7830F86A
:1046C000231001EA090181F440517AE7B8F1000FA3
:1046D00007DA30F8258008EA030848EA070820F8D6
:1046E00025800F7830F827506D0606D530F8275012
:1046F0001D4045EA0C0520F827500D7830F825308C
:1047000003EA090383F44053134320F825308EE76E
:10471000002070472DE9F04391F80C804F780A781B
:1047200048F6BF7C4BF68F7948F2800348F2C0050B
:104730004CF2800648F68F74B8F1000F28D0002F95
:1047400030F822704FEA474748D0002F05DA30F89A
:1047500022702740374320F822700A7830F8227000
:104760007F0605D530F8227027402F4320F82270AD
:104770000D7830F825202240324320F825200C788F
:1047800030F8242002EA0C021A4320F824201AE010
:104790007FB130F82260760605D530F822602640D9
:1047A0002E4320F822600A7830F8221001EA0C012A
:1047B0000EE030F822506D0405D530F82250254027
:1047C000354320F822500A7830F8221001EA090116
:1047D000194320F822100020BDE8F083002F05DAED
:1047E00030F822702740374320F822700A7830F8DA
:1047F0002260760605D530F8226026402E4320F848
:1048000022600E7830F8262022402A4320F8262005
:104810000C7830F8242002EA09021A4320F82420F8
:10482000C1E70020704700207047012120F8401F99
:1048300000210180818001820846704730F8401FC6
:1048400021F43F410180002070470020704730B5BF
:104850000A7BB2BB4A7848F68F7548F28004C2B131
:104860000B7830F82320520607D530F823202A4051
:1048700048F2C0052A4320F82320CA78012A20D014
:104880000A7830F8221048F6BF73194081F02001F1
:1048900014E00A7830F822305B0407D530F8223073
:1048A0002B404CF280052B4320F822300A7830F858
:1048B00022104BF68F73194081F44051214320F8A8
:1048C0002210002030BD10B54A780978002A48F23D
:1048D000800330F8212005D048F6BF74224082F0D2
:1048E000100204E04BF68F74224082F480521A4387
:1048F00020F82120002010BD2DE9F04F0D464A7808
:10490000097B04464FF0000948F68F7A48F2800B85
:104910004FF6FF774FF40048012A09D000297DD0D7
:10492000E87802287BD001287AD00120BDE8F08FFA
:10493000AE692869864200D9064681B1E978022924
:104940001CD0287834F820104906B4F850102144BF
:1049500001EB001070D5A0F80C646A8928E1B3B2AD
:10496000EA882046696900F063FAB4F850002978B3
:10497000204400EB0110A0F8046435E1296A81426B
:1049800076D9297834F8210048F2801200EA0A002A
:10499000104324F82100286A801B2862287834F804
:1049A00020104906697876D511B1012921D027E078
:1049B000B4F85010214401EB001000F20C404EB14D
:1049C0003E2E0FD87108F20700D0491C07EA81215A
:1049D000018015E0018821F4F8410180018841F44B
:1049E0000041F5E77109F20600D1491E48EA81212C
:1049F000EEE7B4F85020111901EB0010A0F80C6498
:104A00006A89B3B22046696900F012FA68693044D5
:104A100068612969286A884206D902E0EDE00DE163
:104A200078E1801B286202E00646C5F8209068788D
:104A300018B1012824D02BE0B7E0B4F85000297851
:104A4000204400EB011000F204404EB13E2E10D87D
:104A50007108F20700D0491C07EA8121018017E0A4
:104A6000018821F4F8410180018841F40041F5E713
:104A700086E07109F20600D1491E48EA8121EDE77E
:104A8000B4F850002978204400EB0110A0F8046429
:104A90002A896FE0FFE711B1012921D027E0B4F89E
:104AA0005010214401EB001000F204404EB13E2EA4
:104AB0000FD87108F20700D0491C07EA8121018054
:104AC00015E0018821F4F8410180018841F400419A
:104AD000F5E77109F20600D1491E48EA8121EEE7A7
:104AE000B4F85010214401EB0010A0F804642A89A6
:104AF000B3B22046696900F09BF968693044686187
:104B00002969286A884202D9801B286202E0064689
:104B1000C5F82090687810B1012822D029E0B4F8B7
:104B200050002978204400EB011000F20C404EB1F7
:104B30003E2E0FD87108F20700D0491C07EA8121E8
:104B4000018016E0018821F4F8410180018841F4D8
:104B50000041F5E77109F20600D1491E48EA8121BA
:104B6000EEE7B4F850100819297800EB0110A0F80E
:104B70000C646A89B3B22046696900F059F933E0E0
:104B80002A7834F8220048F68F63184040EA0B0078
:104B900024F82200B4F850002A78204400EB0210D8
:104BA0008BB2A0F804342A89E5E7A0F804642A89C6
:104BB000B3B22046696900F03BF9687810B101286A
:104BC00008D011E0297834F8210048F2C00200EA48
:104BD0000A0006E0297834F821004CF2800200EA4D
:104BE0000A00104324F82100297834F8210048F6FF
:104BF000BF72104080F03000DFE0A969286981426F
:104C000002D9091AA961B6E00846C5F81890B2E0C1
:104C1000088820F4F8400880088840F400400BE041
:104C20003E2876D84208C00700D0521C07EA8220EE
:104C300002E000BF48EA82200880B6E092B9B4F8EA
:104C400050002978204400EB0110296900F204404B
:104C500069B13E2913D84A08C90700D0521C07EA97
:104C600082210180687888B1012832D03AE0018839
:104C700021F4F8410180018841F40041F1E74A093B
:104C8000C90600D1521E48EA8221EAE7B4F8500072
:104C90002978204400EB0110296900F20C4049B149
:104CA0003E290FD84A08C90700D0521C07EA8221C2
:104CB000018017E0018821F4F8410180018841F466
:104CC0000041F5E74A09C90600D1521E48EA82218F
:104CD000EEE7B4F850100819297800EB0110298A82
:104CE000A0F80C14E869B0B3297834F82100420424
:104CF00001D5420603D444F24002104255D134F8A3
:104D0000210048F2C00200EA0A00104324F8210002
:104D10004BE03CE0A9692869814202D9091AA961DE
:104D200002E00846C5F818908AB9B4F850102A78FD
:104D3000214401EB021101F2044168B13E2813D86D
:104D40004208C30700D0521C07EA82220A80697811
:104D500089B1012921D028E00A8822F4F8420A808A
:104D60000A8842F40042F1E74209C30600D1521E0C
:104D700048EA8222EAE7B4F850102A78214401EB8D
:104D8000021101F20C4100287FF44AAF40E74209CA
:104D9000C0067FF44FAF521E4CE7B4F850201119F3
:104DA0002A7801EB0211A1F80C04297834F82100CB
:104DB0004BF68F72104080F4405040EA0B0024F80C
:104DC00021000020B2E50021A0F844104FF43F413B
:104DD000A0F8401000207047002070470020704766
:104DE0000148FCF74FBB0000942A0020B0F84400B3
:104DF0007047000010B500EB42005C0800F58060D1
:104E000009D000BF30F8042B01F8012B120A01F879
:104E1000012B641EF6D1DA0701D00088087010BD9E
:104E20000020704711B98021A0F84C100020704775
:104E300010B55B1C00EB42005B0800F5806009D0F8
:104E400011F8012B11F8014B42EA042220F8042B3F
:104E50005B1EF5D110BDFEE70907090E002804DB33
:104E600000F1E02080F80014704700F00F0000F11E
:104E7000E02080F8141D704702E008C8121F08C126
:104E8000002AFAD170477047002001E001C1121FCB
:104E9000002AFBD17047884201D3401A7047C943AA
:104EA000401A401C704700001CB500200090FBF722
:104EB00091FFFEF7E0FAFDF7BFFE8648416941F039
:104EC000010141614069002200F00100019011469A
:104ED0000E20FBF7DDFF0E20FBF7CCFFFDF7ECFE0D
:104EE000FDF70AFFFDF75EFFFDF7A8FFFDF7FEFFE8
:104EF00079480778DFF8E4B1DFF8E4918246DBF81F
:104F000000005D46016821F00201016073485838D5
:104F1000FCF722FFFDF7D0FE70480021D430FDF7EA
:104F2000F5FC6E4804214430FDF722FD6B4800215A
:104F30008C30FDF791FA69484430FDF722FC674850
:104F40008C30FDF71EFC6548D430FDF7E6F9FDF71F
:104F5000D3FEFDF727FFFDF771FF54464FF40056CF
:104F60000EE000BFFBF728FF0099FFF794FF6428CD
:104F700006D331464846FBF711FFFBF71DFF0090B3
:104F800020788742EED0277894F80180608818B1A5
:104F90005249D4310968C862A08830B14F494431C0
:104FA0000A68506309683230C8624C480021D43026
:104FB000FDF73AFC494804214430FDF769FC4748B5
:104FC000443001684A6942F001024A610068C168E0
:104FD00021F00201C1600021E16040488C30FDF702
:104FE000CBF93E488C300068016841F00401016053
:104FF0000EE000BFFBF7E0FE0099FFF74CFFC8286A
:1050000006D331464846FBF7C9FEFBF7D5FE0090B4
:10501000E0680028EED072B60020A2462061A060B1
:105020004FF400522063144662B62E49A1F5BA70BF
:10503000FCF778FF2868016841F002010160AB4687
:105040004FEA0A06DBF8000040680004000C26D096
:10505000A04224D0844203D9211A89B2019102E0EE
:105060004FF4005001940022C4F50051F2621D4A31
:1050700089B20446551808E072783146904511D13E
:10508000012812D0886A401CB06228460199FBF7BB
:10509000A5FB0028F0D1326B01991144316370787F
:1050A000804506D0FBF758FB29E7C86A401CF06230
:1050B000EBE7FBF781FE0099FFF7EDFEB0F5FA7F15
:1050C000C0D34FF400514846FBF768FEFBF774FE6F
:1050D0000090B7E7001002400000002014020020FA
:1050E000001001403003002030B587B000220123BA
:1050F0006C4603E0C55CA554521C5B1C8B4201D27C
:105100000F2AF7D30020A05405AB04AA07A120461C
:10511000FBF72CF8022806D10648BDF81010418094
:10512000BDF81410818007B030BD000025687520DF
:10513000256875000000002000000000000000004D
:105140000102030406070809DDDDDDDDDCBBBBDD94
:10515000DDDDDDDDDDDDDDDD988888888888888817
:105160007777777777888888855555566666666637
:105170006666666666688888833333322222222216
:10518000222222222228888DA85100080000002017
:10519000BC010000F806000868520008BC010020AD
:1051A000C42F0000884E0008013413613B1B089196
:1051B000041A9D041AC5041AF1041A41041A6D0454
:1051C000170403090412011402020216408304406A
:1051D00057260201020301031A1A031365071B086D
:1051E00055041A51041A89044119331182105324A9
:1051F000F4130A0632022A401C1C0902435B111DEB
:10520000C03209042D1A020B1305241610010524BF
:105210000110090104240202052406170107058272
:1052200003081C10090491320A1D07050102432CD2
:10523000070581070938442A40072A8107112B09ED
:1052400007440A3B044413CD381B0835044BB539D9
:10525000FC1A790C13C1371B080708C11AB5102AAC
:08526000A91C19041A9D0400A9
:04000005080000ED02
:00000001FF
